{
  "_format": "hh-sol-artifact-1",
  "contractName": "ChickenNFT",
  "sourceName": "contracts/ChickenNFT.sol",
  "abi": [
    {
      "inputs": [],
      "stateMutability": "nonpayable",
      "type": "constructor"
    },
    {
      "anonymous": false,
      "inputs": [
        {
          "indexed": true,
          "internalType": "address",
          "name": "owner",
          "type": "address"
        },
        {
          "indexed": true,
          "internalType": "address",
          "name": "approved",
          "type": "address"
        },
        {
          "indexed": true,
          "internalType": "uint256",
          "name": "tokenId",
          "type": "uint256"
        }
      ],
      "name": "Approval",
      "type": "event"
    },
    {
      "anonymous": false,
      "inputs": [
        {
          "indexed": true,
          "internalType": "address",
          "name": "owner",
          "type": "address"
        },
        {
          "indexed": true,
          "internalType": "address",
          "name": "operator",
          "type": "address"
        },
        {
          "indexed": false,
          "internalType": "bool",
          "name": "approved",
          "type": "bool"
        }
      ],
      "name": "ApprovalForAll",
      "type": "event"
    },
    {
      "anonymous": false,
      "inputs": [
        {
          "indexed": true,
          "internalType": "address",
          "name": "previousOwner",
          "type": "address"
        },
        {
          "indexed": true,
          "internalType": "address",
          "name": "newOwner",
          "type": "address"
        }
      ],
      "name": "OwnershipTransferred",
      "type": "event"
    },
    {
      "anonymous": false,
      "inputs": [
        {
          "indexed": true,
          "internalType": "address",
          "name": "from",
          "type": "address"
        },
        {
          "indexed": true,
          "internalType": "address",
          "name": "to",
          "type": "address"
        },
        {
          "indexed": true,
          "internalType": "uint256",
          "name": "tokenId",
          "type": "uint256"
        }
      ],
      "name": "Transfer",
      "type": "event"
    },
    {
      "inputs": [
        {
          "internalType": "address",
          "name": "to",
          "type": "address"
        },
        {
          "internalType": "uint256",
          "name": "tokenId",
          "type": "uint256"
        }
      ],
      "name": "approve",
      "outputs": [],
      "stateMutability": "nonpayable",
      "type": "function"
    },
    {
      "inputs": [
        {
          "internalType": "address",
          "name": "owner",
          "type": "address"
        }
      ],
      "name": "balanceOf",
      "outputs": [
        {
          "internalType": "uint256",
          "name": "",
          "type": "uint256"
        }
      ],
      "stateMutability": "view",
      "type": "function"
    },
    {
      "inputs": [],
      "name": "count",
      "outputs": [
        {
          "internalType": "uint256",
          "name": "",
          "type": "uint256"
        }
      ],
      "stateMutability": "view",
      "type": "function"
    },
    {
      "inputs": [
        {
          "internalType": "uint256",
          "name": "tokenId",
          "type": "uint256"
        }
      ],
      "name": "getApproved",
      "outputs": [
        {
          "internalType": "address",
          "name": "",
          "type": "address"
        }
      ],
      "stateMutability": "view",
      "type": "function"
    },
    {
      "inputs": [
        {
          "internalType": "address",
          "name": "recipient",
          "type": "address"
        }
      ],
      "name": "getNFT",
      "outputs": [
        {
          "internalType": "uint256",
          "name": "",
          "type": "uint256"
        }
      ],
      "stateMutability": "view",
      "type": "function"
    },
    {
      "inputs": [
        {
          "internalType": "address",
          "name": "owner",
          "type": "address"
        },
        {
          "internalType": "address",
          "name": "operator",
          "type": "address"
        }
      ],
      "name": "isApprovedForAll",
      "outputs": [
        {
          "internalType": "bool",
          "name": "",
          "type": "bool"
        }
      ],
      "stateMutability": "view",
      "type": "function"
    },
    {
      "inputs": [
        {
          "internalType": "string",
          "name": "uri",
          "type": "string"
        }
      ],
      "name": "isContentOwned",
      "outputs": [
        {
          "internalType": "bool",
          "name": "",
          "type": "bool"
        }
      ],
      "stateMutability": "view",
      "type": "function"
    },
    {
      "inputs": [],
      "name": "name",
      "outputs": [
        {
          "internalType": "string",
          "name": "",
          "type": "string"
        }
      ],
      "stateMutability": "view",
      "type": "function"
    },
    {
      "inputs": [],
      "name": "owner",
      "outputs": [
        {
          "internalType": "address",
          "name": "",
          "type": "address"
        }
      ],
      "stateMutability": "view",
      "type": "function"
    },
    {
      "inputs": [
        {
          "internalType": "uint256",
          "name": "tokenId",
          "type": "uint256"
        }
      ],
      "name": "ownerOf",
      "outputs": [
        {
          "internalType": "address",
          "name": "",
          "type": "address"
        }
      ],
      "stateMutability": "view",
      "type": "function"
    },
    {
      "inputs": [
        {
          "internalType": "address",
          "name": "recipient",
          "type": "address"
        },
        {
          "internalType": "string",
          "name": "metadataURI",
          "type": "string"
        }
      ],
      "name": "payMint",
      "outputs": [
        {
          "internalType": "uint256",
          "name": "",
          "type": "uint256"
        }
      ],
      "stateMutability": "payable",
      "type": "function"
    },
    {
      "inputs": [],
      "name": "renounceOwnership",
      "outputs": [],
      "stateMutability": "nonpayable",
      "type": "function"
    },
    {
      "inputs": [
        {
          "internalType": "address",
          "name": "to",
          "type": "address"
        },
        {
          "internalType": "string",
          "name": "uri",
          "type": "string"
        }
      ],
      "name": "safeMint",
      "outputs": [],
      "stateMutability": "nonpayable",
      "type": "function"
    },
    {
      "inputs": [
        {
          "internalType": "address",
          "name": "from",
          "type": "address"
        },
        {
          "internalType": "address",
          "name": "to",
          "type": "address"
        },
        {
          "internalType": "uint256",
          "name": "tokenId",
          "type": "uint256"
        }
      ],
      "name": "safeTransferFrom",
      "outputs": [],
      "stateMutability": "nonpayable",
      "type": "function"
    },
    {
      "inputs": [
        {
          "internalType": "address",
          "name": "from",
          "type": "address"
        },
        {
          "internalType": "address",
          "name": "to",
          "type": "address"
        },
        {
          "internalType": "uint256",
          "name": "tokenId",
          "type": "uint256"
        },
        {
          "internalType": "bytes",
          "name": "_data",
          "type": "bytes"
        }
      ],
      "name": "safeTransferFrom",
      "outputs": [],
      "stateMutability": "nonpayable",
      "type": "function"
    },
    {
      "inputs": [
        {
          "internalType": "address",
          "name": "operator",
          "type": "address"
        },
        {
          "internalType": "bool",
          "name": "approved",
          "type": "bool"
        }
      ],
      "name": "setApprovalForAll",
      "outputs": [],
      "stateMutability": "nonpayable",
      "type": "function"
    },
    {
      "inputs": [
        {
          "internalType": "bytes4",
          "name": "interfaceId",
          "type": "bytes4"
        }
      ],
      "name": "supportsInterface",
      "outputs": [
        {
          "internalType": "bool",
          "name": "",
          "type": "bool"
        }
      ],
      "stateMutability": "view",
      "type": "function"
    },
    {
      "inputs": [],
      "name": "symbol",
      "outputs": [
        {
          "internalType": "string",
          "name": "",
          "type": "string"
        }
      ],
      "stateMutability": "view",
      "type": "function"
    },
    {
      "inputs": [
        {
          "internalType": "uint256",
          "name": "tokenId",
          "type": "uint256"
        }
      ],
      "name": "tokenURI",
      "outputs": [
        {
          "internalType": "string",
          "name": "",
          "type": "string"
        }
      ],
      "stateMutability": "view",
      "type": "function"
    },
    {
      "inputs": [
        {
          "internalType": "address",
          "name": "from",
          "type": "address"
        },
        {
          "internalType": "address",
          "name": "to",
          "type": "address"
        },
        {
          "internalType": "uint256",
          "name": "tokenId",
          "type": "uint256"
        }
      ],
      "name": "transferFrom",
      "outputs": [],
      "stateMutability": "nonpayable",
      "type": "function"
    },
    {
      "inputs": [
        {
          "internalType": "address",
          "name": "newOwner",
          "type": "address"
        }
      ],
      "name": "transferOwnership",
      "outputs": [],
      "stateMutability": "nonpayable",
      "type": "function"
    }
  ],
  "bytecode": "0x60806040523480156200001157600080fd5b506040518060400160405280600a81526020017f436869636b656e4e4654000000000000000000000000000000000000000000008152506040518060400160405280600281526020017f4356000000000000000000000000000000000000000000000000000000000000815250816000908051906020019062000096929190620001d3565b508060019080519060200190620000af929190620001d3565b505050620000d2620000c6620000ef60201b60201c565b620000f760201b60201c565b620000e96008620001bd60201b620010f51760201c565b620002e8565b600033905090565b6000600760009054906101000a900473ffffffffffffffffffffffffffffffffffffffff16905081600760006101000a81548173ffffffffffffffffffffffffffffffffffffffff021916908373ffffffffffffffffffffffffffffffffffffffff1602179055508173ffffffffffffffffffffffffffffffffffffffff168173ffffffffffffffffffffffffffffffffffffffff167f8be0079c531659141344cd1fd0a4f28419497f9722a3daafe3b4186f6b6457e060405160405180910390a35050565b6001816000016000828254019250508190555050565b828054620001e19062000283565b90600052602060002090601f01602090048101928262000205576000855562000251565b82601f106200022057805160ff191683800117855562000251565b8280016001018555821562000251579182015b828111156200025057825182559160200191906001019062000233565b5b50905062000260919062000264565b5090565b5b808211156200027f57600081600090555060010162000265565b5090565b600060028204905060018216806200029c57607f821691505b60208210811415620002b357620002b2620002b9565b5b50919050565b7f4e487b7100000000000000000000000000000000000000000000000000000000600052602260045260246000fd5b61374880620002f86000396000f3fe60806040526004361061012a5760003560e01c806370a08231116100ab578063a22cb4651161006f578063a22cb4651461040b578063b88d4fde14610434578063c87b56dd1461045d578063d204c45e1461049a578063e985e9c5146104c3578063f2fde38b146105005761012a565b806370a0823114610324578063715018a6146103615780638da5cb5b1461037857806395d89b41146103a35780639f1cabc6146103ce5761012a565b8063161a6c1e116100f2578063161a6c1e1461022857806323b872dd14610265578063321656861461028e57806342842e0e146102be5780636352211e146102e75761012a565b806301ffc9a71461012f57806306661abd1461016c57806306fdde0314610197578063081812fc146101c2578063095ea7b3146101ff575b600080fd5b34801561013b57600080fd5b50610156600480360381019061015191906124c9565b610529565b60405161016391906129f9565b60405180910390f35b34801561017857600080fd5b5061018161060b565b60405161018e9190612cf6565b60405180910390f35b3480156101a357600080fd5b506101ac61061c565b6040516101b99190612a14565b60405180910390f35b3480156101ce57600080fd5b506101e960048036038101906101e4919061255c565b6106ae565b6040516101f69190612992565b60405180910390f35b34801561020b57600080fd5b506102266004803603810190610221919061248d565b610733565b005b34801561023457600080fd5b5061024f600480360381019061024a91906122ce565b61084b565b60405161025c9190612cf6565b60405180910390f35b34801561027157600080fd5b5061028c60048036038101906102879190612333565b610894565b005b6102a860048036038101906102a39190612439565b6108f4565b6040516102b59190612cf6565b60405180910390f35b3480156102ca57600080fd5b506102e560048036038101906102e09190612333565b610b2f565b005b3480156102f357600080fd5b5061030e6004803603810190610309919061255c565b610b4f565b60405161031b9190612992565b60405180910390f35b34801561033057600080fd5b5061034b600480360381019061034691906122ce565b610c01565b6040516103589190612cf6565b60405180910390f35b34801561036d57600080fd5b50610376610cb9565b005b34801561038457600080fd5b5061038d610d41565b60405161039a9190612992565b60405180910390f35b3480156103af57600080fd5b506103b8610d6b565b6040516103c59190612a14565b60405180910390f35b3480156103da57600080fd5b506103f560048036038101906103f0919061251b565b610dfd565b60405161040291906129f9565b60405180910390f35b34801561041757600080fd5b50610432600480360381019061042d91906123fd565b610e32565b005b34801561044057600080fd5b5061045b60048036038101906104569190612382565b610e48565b005b34801561046957600080fd5b50610484600480360381019061047f919061255c565b610eaa565b6040516104919190612a14565b60405180910390f35b3480156104a657600080fd5b506104c160048036038101906104bc9190612439565b610ebc565b005b3480156104cf57600080fd5b506104ea60048036038101906104e591906122f7565b610f69565b6040516104f791906129f9565b60405180910390f35b34801561050c57600080fd5b50610527600480360381019061052291906122ce565b610ffd565b005b60007f80ac58cd000000000000000000000000000000000000000000000000000000007bffffffffffffffffffffffffffffffffffffffffffffffffffffffff1916827bffffffffffffffffffffffffffffffffffffffffffffffffffffffff191614806105f457507f5b5e139f000000000000000000000000000000000000000000000000000000007bffffffffffffffffffffffffffffffffffffffffffffffffffffffff1916827bffffffffffffffffffffffffffffffffffffffffffffffffffffffff1916145b8061060457506106038261110b565b5b9050919050565b60006106176008611175565b905090565b60606000805461062b90612f4c565b80601f016020809104026020016040519081016040528092919081815260200182805461065790612f4c565b80156106a45780601f10610679576101008083540402835291602001916106a4565b820191906000526020600020905b81548152906001019060200180831161068757829003601f168201915b5050505050905090565b60006106b982611183565b6106f8576040517f08c379a00000000000000000000000000000000000000000000000000000000081526004016106ef90612c16565b60405180910390fd5b6004600083815260200190815260200160002060009054906101000a900473ffffffffffffffffffffffffffffffffffffffff169050919050565b600061073e82610b4f565b90508073ffffffffffffffffffffffffffffffffffffffff168373ffffffffffffffffffffffffffffffffffffffff1614156107af576040517f08c379a00000000000000000000000000000000000000000000000000000000081526004016107a690612c76565b60405180910390fd5b8073ffffffffffffffffffffffffffffffffffffffff166107ce6111ef565b73ffffffffffffffffffffffffffffffffffffffff1614806107fd57506107fc816107f76111ef565b610f69565b5b61083c576040517f08c379a000000000000000000000000000000000000000000000000000000000815260040161083390612b36565b60405180910390fd5b61084683836111f7565b505050565b6000600a60008373ffffffffffffffffffffffffffffffffffffffff1673ffffffffffffffffffffffffffffffffffffffff168152602001908152602001600020549050919050565b6108a561089f6111ef565b826112b0565b6108e4576040517f08c379a00000000000000000000000000000000000000000000000000000000081526004016108db90612cb6565b60405180910390fd5b6108ef83838361138e565b505050565b60006009826040516109069190612957565b908152602001604051809103902060009054906101000a900460ff1615610962576040517f08c379a000000000000000000000000000000000000000000000000000000000815260040161095990612cd6565b60405180910390fd5b66038d7ea4c680003410156109ac576040517f08c379a00000000000000000000000000000000000000000000000000000000081526004016109a390612b56565b60405180910390fd5b6000600a60008573ffffffffffffffffffffffffffffffffffffffff1673ffffffffffffffffffffffffffffffffffffffff1681526020019081526020016000205414610a2e576040517f08c379a0000000000000000000000000000000000000000000000000000000008152600401610a2590612a36565b60405180910390fd5b6000610a3a6008611175565b9050600081118015610a4d57506103e881105b610a8c576040517f08c379a0000000000000000000000000000000000000000000000000000000008152600401610a8390612c96565b60405180910390fd5b610a9660086110f5565b6001600984604051610aa89190612957565b908152602001604051809103902060006101000a81548160ff02191690831515021790555080600a60008673ffffffffffffffffffffffffffffffffffffffff1673ffffffffffffffffffffffffffffffffffffffff16815260200190815260200160002081905550610b1b84826115f5565b610b2581846117cf565b8091505092915050565b610b4a83838360405180602001604052806000815250610e48565b505050565b6000806002600084815260200190815260200160002060009054906101000a900473ffffffffffffffffffffffffffffffffffffffff169050600073ffffffffffffffffffffffffffffffffffffffff168173ffffffffffffffffffffffffffffffffffffffff161415610bf8576040517f08c379a0000000000000000000000000000000000000000000000000000000008152600401610bef90612b96565b60405180910390fd5b80915050919050565b60008073ffffffffffffffffffffffffffffffffffffffff168273ffffffffffffffffffffffffffffffffffffffff161415610c72576040517f08c379a0000000000000000000000000000000000000000000000000000000008152600401610c6990612b76565b60405180910390fd5b600360008373ffffffffffffffffffffffffffffffffffffffff1673ffffffffffffffffffffffffffffffffffffffff168152602001908152602001600020549050919050565b610cc16111ef565b73ffffffffffffffffffffffffffffffffffffffff16610cdf610d41565b73ffffffffffffffffffffffffffffffffffffffff1614610d35576040517f08c379a0000000000000000000000000000000000000000000000000000000008152600401610d2c90612c36565b60405180910390fd5b610d3f6000611843565b565b6000600760009054906101000a900473ffffffffffffffffffffffffffffffffffffffff16905090565b606060018054610d7a90612f4c565b80601f0160208091040260200160405190810160405280929190818152602001828054610da690612f4c565b8015610df35780601f10610dc857610100808354040283529160200191610df3565b820191906000526020600020905b815481529060010190602001808311610dd657829003601f168201915b5050505050905090565b6000600982604051610e0f9190612957565b908152602001604051809103902060009054906101000a900460ff169050919050565b610e44610e3d6111ef565b8383611909565b5050565b610e59610e536111ef565b836112b0565b610e98576040517f08c379a0000000000000000000000000000000000000000000000000000000008152600401610e8f90612cb6565b60405180910390fd5b610ea484848484611a76565b50505050565b6060610eb582611ad2565b9050919050565b610ec46111ef565b73ffffffffffffffffffffffffffffffffffffffff16610ee2610d41565b73ffffffffffffffffffffffffffffffffffffffff1614610f38576040517f08c379a0000000000000000000000000000000000000000000000000000000008152600401610f2f90612c36565b60405180910390fd5b6000610f446008611175565b9050610f5060086110f5565b610f5a8382611c24565b610f6481836117cf565b505050565b6000600560008473ffffffffffffffffffffffffffffffffffffffff1673ffffffffffffffffffffffffffffffffffffffff16815260200190815260200160002060008373ffffffffffffffffffffffffffffffffffffffff1673ffffffffffffffffffffffffffffffffffffffff16815260200190815260200160002060009054906101000a900460ff16905092915050565b6110056111ef565b73ffffffffffffffffffffffffffffffffffffffff16611023610d41565b73ffffffffffffffffffffffffffffffffffffffff1614611079576040517f08c379a000000000000000000000000000000000000000000000000000000000815260040161107090612c36565b60405180910390fd5b600073ffffffffffffffffffffffffffffffffffffffff168173ffffffffffffffffffffffffffffffffffffffff1614156110e9576040517f08c379a00000000000000000000000000000000000000000000000000000000081526004016110e090612a76565b60405180910390fd5b6110f281611843565b50565b6001816000016000828254019250508190555050565b60007f01ffc9a7000000000000000000000000000000000000000000000000000000007bffffffffffffffffffffffffffffffffffffffffffffffffffffffff1916827bffffffffffffffffffffffffffffffffffffffffffffffffffffffff1916149050919050565b600081600001549050919050565b60008073ffffffffffffffffffffffffffffffffffffffff166002600084815260200190815260200160002060009054906101000a900473ffffffffffffffffffffffffffffffffffffffff1673ffffffffffffffffffffffffffffffffffffffff1614159050919050565b600033905090565b816004600083815260200190815260200160002060006101000a81548173ffffffffffffffffffffffffffffffffffffffff021916908373ffffffffffffffffffffffffffffffffffffffff160217905550808273ffffffffffffffffffffffffffffffffffffffff1661126a83610b4f565b73ffffffffffffffffffffffffffffffffffffffff167f8c5be1e5ebec7d5bd14f71427d1e84f3dd0314c0f7b2291e5b200ac8c7c3b92560405160405180910390a45050565b60006112bb82611183565b6112fa576040517f08c379a00000000000000000000000000000000000000000000000000000000081526004016112f190612b16565b60405180910390fd5b600061130583610b4f565b90508073ffffffffffffffffffffffffffffffffffffffff168473ffffffffffffffffffffffffffffffffffffffff16148061137457508373ffffffffffffffffffffffffffffffffffffffff1661135c846106ae565b73ffffffffffffffffffffffffffffffffffffffff16145b8061138557506113848185610f69565b5b91505092915050565b8273ffffffffffffffffffffffffffffffffffffffff166113ae82610b4f565b73ffffffffffffffffffffffffffffffffffffffff1614611404576040517f08c379a00000000000000000000000000000000000000000000000000000000081526004016113fb90612a96565b60405180910390fd5b600073ffffffffffffffffffffffffffffffffffffffff168273ffffffffffffffffffffffffffffffffffffffff161415611474576040517f08c379a000000000000000000000000000000000000000000000000000000000815260040161146b90612ad6565b60405180910390fd5b61147f838383611c42565b61148a6000826111f7565b6001600360008573ffffffffffffffffffffffffffffffffffffffff1673ffffffffffffffffffffffffffffffffffffffff16815260200190815260200160002060008282546114da9190612e62565b925050819055506001600360008473ffffffffffffffffffffffffffffffffffffffff1673ffffffffffffffffffffffffffffffffffffffff16815260200190815260200160002060008282546115319190612ddb565b92505081905550816002600083815260200190815260200160002060006101000a81548173ffffffffffffffffffffffffffffffffffffffff021916908373ffffffffffffffffffffffffffffffffffffffff160217905550808273ffffffffffffffffffffffffffffffffffffffff168473ffffffffffffffffffffffffffffffffffffffff167fddf252ad1be2c89b69c2b068fc378daa952ba7f163c4a11628f55a4df523b3ef60405160405180910390a46115f0838383611c47565b505050565b600073ffffffffffffffffffffffffffffffffffffffff168273ffffffffffffffffffffffffffffffffffffffff161415611665576040517f08c379a000000000000000000000000000000000000000000000000000000000815260040161165c90612bd6565b60405180910390fd5b61166e81611183565b156116ae576040517f08c379a00000000000000000000000000000000000000000000000000000000081526004016116a590612ab6565b60405180910390fd5b6116ba60008383611c42565b6001600360008473ffffffffffffffffffffffffffffffffffffffff1673ffffffffffffffffffffffffffffffffffffffff168152602001908152602001600020600082825461170a9190612ddb565b92505081905550816002600083815260200190815260200160002060006101000a81548173ffffffffffffffffffffffffffffffffffffffff021916908373ffffffffffffffffffffffffffffffffffffffff160217905550808273ffffffffffffffffffffffffffffffffffffffff16600073ffffffffffffffffffffffffffffffffffffffff167fddf252ad1be2c89b69c2b068fc378daa952ba7f163c4a11628f55a4df523b3ef60405160405180910390a46117cb60008383611c47565b5050565b6117d882611183565b611817576040517f08c379a000000000000000000000000000000000000000000000000000000000815260040161180e90612bb6565b60405180910390fd5b8060066000848152602001908152602001600020908051906020019061183e9291906120f2565b505050565b6000600760009054906101000a900473ffffffffffffffffffffffffffffffffffffffff16905081600760006101000a81548173ffffffffffffffffffffffffffffffffffffffff021916908373ffffffffffffffffffffffffffffffffffffffff1602179055508173ffffffffffffffffffffffffffffffffffffffff168173ffffffffffffffffffffffffffffffffffffffff167f8be0079c531659141344cd1fd0a4f28419497f9722a3daafe3b4186f6b6457e060405160405180910390a35050565b8173ffffffffffffffffffffffffffffffffffffffff168373ffffffffffffffffffffffffffffffffffffffff161415611978576040517f08c379a000000000000000000000000000000000000000000000000000000000815260040161196f90612af6565b60405180910390fd5b80600560008573ffffffffffffffffffffffffffffffffffffffff1673ffffffffffffffffffffffffffffffffffffffff16815260200190815260200160002060008473ffffffffffffffffffffffffffffffffffffffff1673ffffffffffffffffffffffffffffffffffffffff16815260200190815260200160002060006101000a81548160ff0219169083151502179055508173ffffffffffffffffffffffffffffffffffffffff168373ffffffffffffffffffffffffffffffffffffffff167f17307eab39ab6107e8899845ad3d59bd9653f200f220920489ca2b5937696c3183604051611a6991906129f9565b60405180910390a3505050565b611a8184848461138e565b611a8d84848484611c4c565b611acc576040517f08c379a0000000000000000000000000000000000000000000000000000000008152600401611ac390612a56565b60405180910390fd5b50505050565b6060611add82611183565b611b1c576040517f08c379a0000000000000000000000000000000000000000000000000000000008152600401611b1390612bf6565b60405180910390fd5b6000600660008481526020019081526020016000208054611b3c90612f4c565b80601f0160208091040260200160405190810160405280929190818152602001828054611b6890612f4c565b8015611bb55780601f10611b8a57610100808354040283529160200191611bb5565b820191906000526020600020905b815481529060010190602001808311611b9857829003601f168201915b505050505090506000611bc6611de3565b9050600081511415611bdc578192505050611c1f565b600082511115611c11578082604051602001611bf992919061296e565b60405160208183030381529060405292505050611c1f565b611c1a84611e20565b925050505b919050565b611c3e828260405180602001604052806000815250611ec7565b5050565b505050565b505050565b6000611c6d8473ffffffffffffffffffffffffffffffffffffffff16611f22565b15611dd6578373ffffffffffffffffffffffffffffffffffffffff1663150b7a02611c966111ef565b8786866040518563ffffffff1660e01b8152600401611cb894939291906129ad565b602060405180830381600087803b158015611cd257600080fd5b505af1925050508015611d0357506040513d601f19601f82011682018060405250810190611d0091906124f2565b60015b611d86573d8060008114611d33576040519150601f19603f3d011682016040523d82523d6000602084013e611d38565b606091505b50600081511415611d7e576040517f08c379a0000000000000000000000000000000000000000000000000000000008152600401611d7590612a56565b60405180910390fd5b805181602001fd5b63150b7a0260e01b7bffffffffffffffffffffffffffffffffffffffffffffffffffffffff1916817bffffffffffffffffffffffffffffffffffffffffffffffffffffffff191614915050611ddb565b600190505b949350505050565b60606040518060400160405280600781526020017f697066733a2f2f00000000000000000000000000000000000000000000000000815250905090565b6060611e2b82611183565b611e6a576040517f08c379a0000000000000000000000000000000000000000000000000000000008152600401611e6190612c56565b60405180910390fd5b6000611e74611de3565b90506000815111611e945760405180602001604052806000815250611ebf565b80611e9e84611f45565b604051602001611eaf92919061296e565b6040516020818303038152906040525b915050919050565b611ed183836115f5565b611ede6000848484611c4c565b611f1d576040517f08c379a0000000000000000000000000000000000000000000000000000000008152600401611f1490612a56565b60405180910390fd5b505050565b6000808273ffffffffffffffffffffffffffffffffffffffff163b119050919050565b60606000821415611f8d576040518060400160405280600181526020017f300000000000000000000000000000000000000000000000000000000000000081525090506120ed565b600082905060005b60008214611fbf578080611fa890612faf565b915050600a82611fb89190612e31565b9150611f95565b60008167ffffffffffffffff811115612001577f4e487b7100000000000000000000000000000000000000000000000000000000600052604160045260246000fd5b6040519080825280601f01601f1916602001820160405280156120335781602001600182028036833780820191505090505b5090505b600085146120e65760018261204c9190612e62565b9150600a8561205b9190612ff8565b60306120679190612ddb565b60f81b8183815181106120a3577f4e487b7100000000000000000000000000000000000000000000000000000000600052603260045260246000fd5b60200101907effffffffffffffffffffffffffffffffffffffffffffffffffffffffffffff1916908160001a905350600a856120df9190612e31565b9450612037565b8093505050505b919050565b8280546120fe90612f4c565b90600052602060002090601f0160209004810192826121205760008555612167565b82601f1061213957805160ff1916838001178555612167565b82800160010185558215612167579182015b8281111561216657825182559160200191906001019061214b565b5b5090506121749190612178565b5090565b5b80821115612191576000816000905550600101612179565b5090565b60006121a86121a384612d36565b612d11565b9050828152602081018484840111156121c057600080fd5b6121cb848285612f0a565b509392505050565b60006121e66121e184612d67565b612d11565b9050828152602081018484840111156121fe57600080fd5b612209848285612f0a565b509392505050565b600081359050612220816136b6565b92915050565b600081359050612235816136cd565b92915050565b60008135905061224a816136e4565b92915050565b60008151905061225f816136e4565b92915050565b600082601f83011261227657600080fd5b8135612286848260208601612195565b91505092915050565b600082601f8301126122a057600080fd5b81356122b08482602086016121d3565b91505092915050565b6000813590506122c8816136fb565b92915050565b6000602082840312156122e057600080fd5b60006122ee84828501612211565b91505092915050565b6000806040838503121561230a57600080fd5b600061231885828601612211565b925050602061232985828601612211565b9150509250929050565b60008060006060848603121561234857600080fd5b600061235686828701612211565b935050602061236786828701612211565b9250506040612378868287016122b9565b9150509250925092565b6000806000806080858703121561239857600080fd5b60006123a687828801612211565b94505060206123b787828801612211565b93505060406123c8878288016122b9565b925050606085013567ffffffffffffffff8111156123e557600080fd5b6123f187828801612265565b91505092959194509250565b6000806040838503121561241057600080fd5b600061241e85828601612211565b925050602061242f85828601612226565b9150509250929050565b6000806040838503121561244c57600080fd5b600061245a85828601612211565b925050602083013567ffffffffffffffff81111561247757600080fd5b6124838582860161228f565b9150509250929050565b600080604083850312156124a057600080fd5b60006124ae85828601612211565b92505060206124bf858286016122b9565b9150509250929050565b6000602082840312156124db57600080fd5b60006124e98482850161223b565b91505092915050565b60006020828403121561250457600080fd5b600061251284828501612250565b91505092915050565b60006020828403121561252d57600080fd5b600082013567ffffffffffffffff81111561254757600080fd5b6125538482850161228f565b91505092915050565b60006020828403121561256e57600080fd5b600061257c848285016122b9565b91505092915050565b61258e81612e96565b82525050565b61259d81612ea8565b82525050565b60006125ae82612d98565b6125b88185612dae565b93506125c8818560208601612f19565b6125d1816130e5565b840191505092915050565b60006125e782612da3565b6125f18185612dbf565b9350612601818560208601612f19565b61260a816130e5565b840191505092915050565b600061262082612da3565b61262a8185612dd0565b935061263a818560208601612f19565b80840191505092915050565b6000612653600e83612dbf565b915061265e826130f6565b602082019050919050565b6000612676603283612dbf565b91506126818261311f565b604082019050919050565b6000612699602683612dbf565b91506126a48261316e565b604082019050919050565b60006126bc602583612dbf565b91506126c7826131bd565b604082019050919050565b60006126df601c83612dbf565b91506126ea8261320c565b602082019050919050565b6000612702602483612dbf565b915061270d82613235565b604082019050919050565b6000612725601983612dbf565b915061273082613284565b602082019050919050565b6000612748602c83612dbf565b9150612753826132ad565b604082019050919050565b600061276b603883612dbf565b9150612776826132fc565b604082019050919050565b600061278e602483612dbf565b91506127998261334b565b604082019050919050565b60006127b1602a83612dbf565b91506127bc8261339a565b604082019050919050565b60006127d4602983612dbf565b91506127df826133e9565b604082019050919050565b60006127f7602e83612dbf565b915061280282613438565b604082019050919050565b600061281a602083612dbf565b915061282582613487565b602082019050919050565b600061283d603183612dbf565b9150612848826134b0565b604082019050919050565b6000612860602c83612dbf565b915061286b826134ff565b604082019050919050565b6000612883602083612dbf565b915061288e8261354e565b602082019050919050565b60006128a6602f83612dbf565b91506128b182613577565b604082019050919050565b60006128c9602183612dbf565b91506128d4826135c6565b604082019050919050565b60006128ec601683612dbf565b91506128f782613615565b602082019050919050565b600061290f603183612dbf565b915061291a8261363e565b604082019050919050565b6000612932601583612dbf565b915061293d8261368d565b602082019050919050565b61295181612f00565b82525050565b60006129638284612615565b915081905092915050565b600061297a8285612615565b91506129868284612615565b91508190509392505050565b60006020820190506129a76000830184612585565b92915050565b60006080820190506129c26000830187612585565b6129cf6020830186612585565b6129dc6040830185612948565b81810360608301526129ee81846125a3565b905095945050505050565b6000602082019050612a0e6000830184612594565b92915050565b60006020820190508181036000830152612a2e81846125dc565b905092915050565b60006020820190508181036000830152612a4f81612646565b9050919050565b60006020820190508181036000830152612a6f81612669565b9050919050565b60006020820190508181036000830152612a8f8161268c565b9050919050565b60006020820190508181036000830152612aaf816126af565b9050919050565b60006020820190508181036000830152612acf816126d2565b9050919050565b60006020820190508181036000830152612aef816126f5565b9050919050565b60006020820190508181036000830152612b0f81612718565b9050919050565b60006020820190508181036000830152612b2f8161273b565b9050919050565b60006020820190508181036000830152612b4f8161275e565b9050919050565b60006020820190508181036000830152612b6f81612781565b9050919050565b60006020820190508181036000830152612b8f816127a4565b9050919050565b60006020820190508181036000830152612baf816127c7565b9050919050565b60006020820190508181036000830152612bcf816127ea565b9050919050565b60006020820190508181036000830152612bef8161280d565b9050919050565b60006020820190508181036000830152612c0f81612830565b9050919050565b60006020820190508181036000830152612c2f81612853565b9050919050565b60006020820190508181036000830152612c4f81612876565b9050919050565b60006020820190508181036000830152612c6f81612899565b9050919050565b60006020820190508181036000830152612c8f816128bc565b9050919050565b60006020820190508181036000830152612caf816128df565b9050919050565b60006020820190508181036000830152612ccf81612902565b9050919050565b60006020820190508181036000830152612cef81612925565b9050919050565b6000602082019050612d0b6000830184612948565b92915050565b6000612d1b612d2c565b9050612d278282612f7e565b919050565b6000604051905090565b600067ffffffffffffffff821115612d5157612d506130b6565b5b612d5a826130e5565b9050602081019050919050565b600067ffffffffffffffff821115612d8257612d816130b6565b5b612d8b826130e5565b9050602081019050919050565b600081519050919050565b600081519050919050565b600082825260208201905092915050565b600082825260208201905092915050565b600081905092915050565b6000612de682612f00565b9150612df183612f00565b9250827fffffffffffffffffffffffffffffffffffffffffffffffffffffffffffffffff03821115612e2657612e25613029565b5b828201905092915050565b6000612e3c82612f00565b9150612e4783612f00565b925082612e5757612e56613058565b5b828204905092915050565b6000612e6d82612f00565b9150612e7883612f00565b925082821015612e8b57612e8a613029565b5b828203905092915050565b6000612ea182612ee0565b9050919050565b60008115159050919050565b60007fffffffff0000000000000000000000000000000000000000000000000000000082169050919050565b600073ffffffffffffffffffffffffffffffffffffffff82169050919050565b6000819050919050565b82818337600083830152505050565b60005b83811015612f37578082015181840152602081019050612f1c565b83811115612f46576000848401525b50505050565b60006002820490506001821680612f6457607f821691505b60208210811415612f7857612f77613087565b5b50919050565b612f87826130e5565b810181811067ffffffffffffffff82111715612fa657612fa56130b6565b5b80604052505050565b6000612fba82612f00565b91507fffffffffffffffffffffffffffffffffffffffffffffffffffffffffffffffff821415612fed57612fec613029565b5b600182019050919050565b600061300382612f00565b915061300e83612f00565b92508261301e5761301d613058565b5b828206905092915050565b7f4e487b7100000000000000000000000000000000000000000000000000000000600052601160045260246000fd5b7f4e487b7100000000000000000000000000000000000000000000000000000000600052601260045260246000fd5b7f4e487b7100000000000000000000000000000000000000000000000000000000600052602260045260246000fd5b7f4e487b7100000000000000000000000000000000000000000000000000000000600052604160045260246000fd5b6000601f19601f8301169050919050565b7f416c7265616479206d696e746564000000000000000000000000000000000000600082015250565b7f4552433732313a207472616e7366657220746f206e6f6e20455243373231526560008201527f63656976657220696d706c656d656e7465720000000000000000000000000000602082015250565b7f4f776e61626c653a206e6577206f776e657220697320746865207a65726f206160008201527f6464726573730000000000000000000000000000000000000000000000000000602082015250565b7f4552433732313a207472616e736665722066726f6d20696e636f72726563742060008201527f6f776e6572000000000000000000000000000000000000000000000000000000602082015250565b7f4552433732313a20746f6b656e20616c7265616479206d696e74656400000000600082015250565b7f4552433732313a207472616e7366657220746f20746865207a65726f2061646460008201527f7265737300000000000000000000000000000000000000000000000000000000602082015250565b7f4552433732313a20617070726f766520746f2063616c6c657200000000000000600082015250565b7f4552433732313a206f70657261746f7220717565727920666f72206e6f6e657860008201527f697374656e7420746f6b656e0000000000000000000000000000000000000000602082015250565b7f4552433732313a20617070726f76652063616c6c6572206973206e6f74206f7760008201527f6e6572206e6f7220617070726f76656420666f7220616c6c0000000000000000602082015250565b7f5061796d656e74206d757374206265206174206c6561737420302e303031206560008201527f7468657200000000000000000000000000000000000000000000000000000000602082015250565b7f4552433732313a2062616c616e636520717565727920666f7220746865207a6560008201527f726f206164647265737300000000000000000000000000000000000000000000602082015250565b7f4552433732313a206f776e657220717565727920666f72206e6f6e657869737460008201527f656e7420746f6b656e0000000000000000000000000000000000000000000000602082015250565b7f45524337323155524953746f726167653a2055524920736574206f66206e6f6e60008201527f6578697374656e7420746f6b656e000000000000000000000000000000000000602082015250565b7f4552433732313a206d696e7420746f20746865207a65726f2061646472657373600082015250565b7f45524337323155524953746f726167653a2055524920717565727920666f722060008201527f6e6f6e6578697374656e7420746f6b656e000000000000000000000000000000602082015250565b7f4552433732313a20617070726f76656420717565727920666f72206e6f6e657860008201527f697374656e7420746f6b656e0000000000000000000000000000000000000000602082015250565b7f4f776e61626c653a2063616c6c6572206973206e6f7420746865206f776e6572600082015250565b7f4552433732314d657461646174613a2055524920717565727920666f72206e6f60008201527f6e6578697374656e7420746f6b656e0000000000000000000000000000000000602082015250565b7f4552433732313a20617070726f76616c20746f2063757272656e74206f776e6560008201527f7200000000000000000000000000000000000000000000000000000000000000602082015250565b7f546f6f206d616e79206974656d73206372656174656400000000000000000000600082015250565b7f4552433732313a207472616e736665722063616c6c6572206973206e6f74206f60008201527f776e6572206e6f7220617070726f766564000000000000000000000000000000602082015250565b7f436f6e74656e7420616c7265616479206f776e65640000000000000000000000600082015250565b6136bf81612e96565b81146136ca57600080fd5b50565b6136d681612ea8565b81146136e157600080fd5b50565b6136ed81612eb4565b81146136f857600080fd5b50565b61370481612f00565b811461370f57600080fd5b5056fea2646970667358221220ada89b6a5b3490cdf0b28f38e682afd8a09afc9977041ca6a407ef0e02d8ac4264736f6c63430008040033",
  "linkReferences": {},
  "deployedLinkReferences": {}
}