{
    "_format": "hh-sol-artifact-1",
    "contractName": "ChickenNFT",
    "sourceName": "contracts/ChickenNFT.sol",
    "abi": [
        {
            "inputs": [],
            "stateMutability": "nonpayable",
            "type": "constructor"
        },
        {
            "anonymous": false,
            "inputs": [
                {
                    "indexed": true,
                    "internalType": "address",
                    "name": "owner",
                    "type": "address"
                },
                {
                    "indexed": true,
                    "internalType": "address",
                    "name": "approved",
                    "type": "address"
                },
                {
                    "indexed": true,
                    "internalType": "uint256",
                    "name": "tokenId",
                    "type": "uint256"
                }
            ],
            "name": "Approval",
            "type": "event"
        },
        {
            "anonymous": false,
            "inputs": [
                {
                    "indexed": true,
                    "internalType": "address",
                    "name": "owner",
                    "type": "address"
                },
                {
                    "indexed": true,
                    "internalType": "address",
                    "name": "operator",
                    "type": "address"
                },
                {
                    "indexed": false,
                    "internalType": "bool",
                    "name": "approved",
                    "type": "bool"
                }
            ],
            "name": "ApprovalForAll",
            "type": "event"
        },
        {
            "anonymous": false,
            "inputs": [
                {
                    "indexed": true,
                    "internalType": "address",
                    "name": "previousOwner",
                    "type": "address"
                },
                {
                    "indexed": true,
                    "internalType": "address",
                    "name": "newOwner",
                    "type": "address"
                }
            ],
            "name": "OwnershipTransferred",
            "type": "event"
        },
        {
            "anonymous": false,
            "inputs": [
                {
                    "indexed": true,
                    "internalType": "address",
                    "name": "from",
                    "type": "address"
                },
                {
                    "indexed": true,
                    "internalType": "address",
                    "name": "to",
                    "type": "address"
                },
                {
                    "indexed": true,
                    "internalType": "uint256",
                    "name": "tokenId",
                    "type": "uint256"
                }
            ],
            "name": "Transfer",
            "type": "event"
        },
        {
            "inputs": [
                {
                    "internalType": "address",
                    "name": "to",
                    "type": "address"
                },
                {
                    "internalType": "uint256",
                    "name": "tokenId",
                    "type": "uint256"
                }
            ],
            "name": "approve",
            "outputs": [],
            "stateMutability": "nonpayable",
            "type": "function"
        },
        {
            "inputs": [
                {
                    "internalType": "address",
                    "name": "owner",
                    "type": "address"
                }
            ],
            "name": "balanceOf",
            "outputs": [
                {
                    "internalType": "uint256",
                    "name": "",
                    "type": "uint256"
                }
            ],
            "stateMutability": "view",
            "type": "function"
        },
        {
            "inputs": [],
            "name": "count",
            "outputs": [
                {
                    "internalType": "uint256",
                    "name": "",
                    "type": "uint256"
                }
            ],
            "stateMutability": "view",
            "type": "function"
        },
        {
            "inputs": [
                {
                    "internalType": "uint256",
                    "name": "tokenId",
                    "type": "uint256"
                }
            ],
            "name": "getApproved",
            "outputs": [
                {
                    "internalType": "address",
                    "name": "",
                    "type": "address"
                }
            ],
            "stateMutability": "view",
            "type": "function"
        },
        {
            "inputs": [
                {
                    "internalType": "address",
                    "name": "owner",
                    "type": "address"
                },
                {
                    "internalType": "address",
                    "name": "operator",
                    "type": "address"
                }
            ],
            "name": "isApprovedForAll",
            "outputs": [
                {
                    "internalType": "bool",
                    "name": "",
                    "type": "bool"
                }
            ],
            "stateMutability": "view",
            "type": "function"
        },
        {
            "inputs": [
                {
                    "internalType": "string",
                    "name": "uri",
                    "type": "string"
                }
            ],
            "name": "isContentOwned",
            "outputs": [
                {
                    "internalType": "bool",
                    "name": "",
                    "type": "bool"
                }
            ],
            "stateMutability": "view",
            "type": "function"
        },
        {
            "inputs": [],
            "name": "name",
            "outputs": [
                {
                    "internalType": "string",
                    "name": "",
                    "type": "string"
                }
            ],
            "stateMutability": "view",
            "type": "function"
        },
        {
            "inputs": [],
            "name": "owner",
            "outputs": [
                {
                    "internalType": "address",
                    "name": "",
                    "type": "address"
                }
            ],
            "stateMutability": "view",
            "type": "function"
        },
        {
            "inputs": [
                {
                    "internalType": "uint256",
                    "name": "tokenId",
                    "type": "uint256"
                }
            ],
            "name": "ownerOf",
            "outputs": [
                {
                    "internalType": "address",
                    "name": "",
                    "type": "address"
                }
            ],
            "stateMutability": "view",
            "type": "function"
        },
        {
            "inputs": [
                {
                    "internalType": "address",
                    "name": "recipient",
                    "type": "address"
                },
                {
                    "internalType": "string",
                    "name": "metadataURI",
                    "type": "string"
                }
            ],
            "name": "payMint",
            "outputs": [
                {
                    "internalType": "uint256",
                    "name": "",
                    "type": "uint256"
                }
            ],
            "stateMutability": "payable",
            "type": "function"
        },
        {
            "inputs": [],
            "name": "renounceOwnership",
            "outputs": [],
            "stateMutability": "nonpayable",
            "type": "function"
        },
        {
            "inputs": [
                {
                    "internalType": "address",
                    "name": "to",
                    "type": "address"
                },
                {
                    "internalType": "string",
                    "name": "uri",
                    "type": "string"
                }
            ],
            "name": "safeMint",
            "outputs": [],
            "stateMutability": "nonpayable",
            "type": "function"
        },
        {
            "inputs": [
                {
                    "internalType": "address",
                    "name": "from",
                    "type": "address"
                },
                {
                    "internalType": "address",
                    "name": "to",
                    "type": "address"
                },
                {
                    "internalType": "uint256",
                    "name": "tokenId",
                    "type": "uint256"
                }
            ],
            "name": "safeTransferFrom",
            "outputs": [],
            "stateMutability": "nonpayable",
            "type": "function"
        },
        {
            "inputs": [
                {
                    "internalType": "address",
                    "name": "from",
                    "type": "address"
                },
                {
                    "internalType": "address",
                    "name": "to",
                    "type": "address"
                },
                {
                    "internalType": "uint256",
                    "name": "tokenId",
                    "type": "uint256"
                },
                {
                    "internalType": "bytes",
                    "name": "_data",
                    "type": "bytes"
                }
            ],
            "name": "safeTransferFrom",
            "outputs": [],
            "stateMutability": "nonpayable",
            "type": "function"
        },
        {
            "inputs": [
                {
                    "internalType": "address",
                    "name": "operator",
                    "type": "address"
                },
                {
                    "internalType": "bool",
                    "name": "approved",
                    "type": "bool"
                }
            ],
            "name": "setApprovalForAll",
            "outputs": [],
            "stateMutability": "nonpayable",
            "type": "function"
        },
        {
            "inputs": [
                {
                    "internalType": "bytes4",
                    "name": "interfaceId",
                    "type": "bytes4"
                }
            ],
            "name": "supportsInterface",
            "outputs": [
                {
                    "internalType": "bool",
                    "name": "",
                    "type": "bool"
                }
            ],
            "stateMutability": "view",
            "type": "function"
        },
        {
            "inputs": [],
            "name": "symbol",
            "outputs": [
                {
                    "internalType": "string",
                    "name": "",
                    "type": "string"
                }
            ],
            "stateMutability": "view",
            "type": "function"
        },
        {
            "inputs": [
                {
                    "internalType": "uint256",
                    "name": "tokenId",
                    "type": "uint256"
                }
            ],
            "name": "tokenURI",
            "outputs": [
                {
                    "internalType": "string",
                    "name": "",
                    "type": "string"
                }
            ],
            "stateMutability": "view",
            "type": "function"
        },
        {
            "inputs": [
                {
                    "internalType": "address",
                    "name": "from",
                    "type": "address"
                },
                {
                    "internalType": "address",
                    "name": "to",
                    "type": "address"
                },
                {
                    "internalType": "uint256",
                    "name": "tokenId",
                    "type": "uint256"
                }
            ],
            "name": "transferFrom",
            "outputs": [],
            "stateMutability": "nonpayable",
            "type": "function"
        },
        {
            "inputs": [
                {
                    "internalType": "address",
                    "name": "newOwner",
                    "type": "address"
                }
            ],
            "name": "transferOwnership",
            "outputs": [],
            "stateMutability": "nonpayable",
            "type": "function"
        }
    ],
    "bytecode": "0x60806040523480156200001157600080fd5b506040518060400160405280600a81526020017f436869636b656e4e4654000000000000000000000000000000000000000000008152506040518060400160405280600281526020017f4356000000000000000000000000000000000000000000000000000000000000815250816000908051906020019062000096929190620001a6565b508060019080519060200190620000af929190620001a6565b505050620000d2620000c6620000d860201b60201c565b620000e060201b60201c565b620002bb565b600033905090565b6000600760009054906101000a900473ffffffffffffffffffffffffffffffffffffffff16905081600760006101000a81548173ffffffffffffffffffffffffffffffffffffffff021916908373ffffffffffffffffffffffffffffffffffffffff1602179055508173ffffffffffffffffffffffffffffffffffffffff168173ffffffffffffffffffffffffffffffffffffffff167f8be0079c531659141344cd1fd0a4f28419497f9722a3daafe3b4186f6b6457e060405160405180910390a35050565b828054620001b49062000256565b90600052602060002090601f016020900481019282620001d8576000855562000224565b82601f10620001f357805160ff191683800117855562000224565b8280016001018555821562000224579182015b828111156200022357825182559160200191906001019062000206565b5b50905062000233919062000237565b5090565b5b808211156200025257600081600090555060010162000238565b5090565b600060028204905060018216806200026f57607f821691505b602082108114156200028657620002856200028c565b5b50919050565b7f4e487b7100000000000000000000000000000000000000000000000000000000600052602260045260246000fd5b61359680620002cb6000396000f3fe60806040526004361061011f5760003560e01c8063715018a6116100a0578063b88d4fde11610064578063b88d4fde146103ec578063c87b56dd14610415578063d204c45e14610452578063e985e9c51461047b578063f2fde38b146104b85761011f565b8063715018a6146103195780638da5cb5b1461033057806395d89b411461035b5780639f1cabc614610386578063a22cb465146103c35761011f565b806323b872dd116100e757806323b872dd1461021d578063321656861461024657806342842e0e146102765780636352211e1461029f57806370a08231146102dc5761011f565b806301ffc9a71461012457806306661abd1461016157806306fdde031461018c578063081812fc146101b7578063095ea7b3146101f4575b600080fd5b34801561013057600080fd5b5061014b60048036038101906101469190612383565b6104e1565b6040516101589190612890565b60405180910390f35b34801561016d57600080fd5b506101766105c3565b6040516101839190612b6d565b60405180910390f35b34801561019857600080fd5b506101a16105d4565b6040516101ae91906128ab565b60405180910390f35b3480156101c357600080fd5b506101de60048036038101906101d99190612416565b610666565b6040516101eb9190612829565b60405180910390f35b34801561020057600080fd5b5061021b60048036038101906102169190612347565b6106eb565b005b34801561022957600080fd5b50610244600480360381019061023f91906121ed565b610803565b005b610260600480360381019061025b91906122f3565b610863565b60405161026d9190612b6d565b60405180910390f35b34801561028257600080fd5b5061029d600480360381019061029891906121ed565b6109f3565b005b3480156102ab57600080fd5b506102c660048036038101906102c19190612416565b610a13565b6040516102d39190612829565b60405180910390f35b3480156102e857600080fd5b5061030360048036038101906102fe9190612188565b610ac5565b6040516103109190612b6d565b60405180910390f35b34801561032557600080fd5b5061032e610b7d565b005b34801561033c57600080fd5b50610345610c05565b6040516103529190612829565b60405180910390f35b34801561036757600080fd5b50610370610c2f565b60405161037d91906128ab565b60405180910390f35b34801561039257600080fd5b506103ad60048036038101906103a891906123d5565b610cc1565b6040516103ba9190612890565b60405180910390f35b3480156103cf57600080fd5b506103ea60048036038101906103e591906122b7565b610cec565b005b3480156103f857600080fd5b50610413600480360381019061040e919061223c565b610d02565b005b34801561042157600080fd5b5061043c60048036038101906104379190612416565b610d64565b60405161044991906128ab565b60405180910390f35b34801561045e57600080fd5b50610479600480360381019061047491906122f3565b610d76565b005b34801561048757600080fd5b506104a2600480360381019061049d91906121b1565b610e23565b6040516104af9190612890565b60405180910390f35b3480156104c457600080fd5b506104df60048036038101906104da9190612188565b610eb7565b005b60007f80ac58cd000000000000000000000000000000000000000000000000000000007bffffffffffffffffffffffffffffffffffffffffffffffffffffffff1916827bffffffffffffffffffffffffffffffffffffffffffffffffffffffff191614806105ac57507f5b5e139f000000000000000000000000000000000000000000000000000000007bffffffffffffffffffffffffffffffffffffffffffffffffffffffff1916827bffffffffffffffffffffffffffffffffffffffffffffffffffffffff1916145b806105bc57506105bb82610faf565b5b9050919050565b60006105cf6008611019565b905090565b6060600080546105e390612dc3565b80601f016020809104026020016040519081016040528092919081815260200182805461060f90612dc3565b801561065c5780601f106106315761010080835404028352916020019161065c565b820191906000526020600020905b81548152906001019060200180831161063f57829003601f168201915b5050505050905090565b600061067182611027565b6106b0576040517f08c379a00000000000000000000000000000000000000000000000000000000081526004016106a790612a8d565b60405180910390fd5b6004600083815260200190815260200160002060009054906101000a900473ffffffffffffffffffffffffffffffffffffffff169050919050565b60006106f682610a13565b90508073ffffffffffffffffffffffffffffffffffffffff168373ffffffffffffffffffffffffffffffffffffffff161415610767576040517f08c379a000000000000000000000000000000000000000000000000000000000815260040161075e90612aed565b60405180910390fd5b8073ffffffffffffffffffffffffffffffffffffffff16610786611093565b73ffffffffffffffffffffffffffffffffffffffff1614806107b557506107b4816107af611093565b610e23565b5b6107f4576040517f08c379a00000000000000000000000000000000000000000000000000000000081526004016107eb906129ad565b60405180910390fd5b6107fe838361109b565b505050565b61081461080e611093565b82611154565b610853576040517f08c379a000000000000000000000000000000000000000000000000000000000815260040161084a90612b2d565b60405180910390fd5b61085e838383611232565b505050565b6000600160098360405161087791906127ee565b90815260200160405180910390205414156108c7576040517f08c379a00000000000000000000000000000000000000000000000000000000081526004016108be90612b4d565b60405180910390fd5b66038d7ea4c68000341015610911576040517f08c379a0000000000000000000000000000000000000000000000000000000008152600401610908906129cd565b60405180910390fd5b600061091d6008611019565b90506103e88110610963576040517f08c379a000000000000000000000000000000000000000000000000000000000815260040161095a90612b0d565b60405180910390fd5b61096d6008611499565b600160098460405161097f91906127ee565b90815260200160405180910390208190555080600a60008673ffffffffffffffffffffffffffffffffffffffff1673ffffffffffffffffffffffffffffffffffffffff168152602001908152602001600020819055506109df84826114af565b6109e98184611689565b8091505092915050565b610a0e83838360405180602001604052806000815250610d02565b505050565b6000806002600084815260200190815260200160002060009054906101000a900473ffffffffffffffffffffffffffffffffffffffff169050600073ffffffffffffffffffffffffffffffffffffffff168173ffffffffffffffffffffffffffffffffffffffff161415610abc576040517f08c379a0000000000000000000000000000000000000000000000000000000008152600401610ab390612a0d565b60405180910390fd5b80915050919050565b60008073ffffffffffffffffffffffffffffffffffffffff168273ffffffffffffffffffffffffffffffffffffffff161415610b36576040517f08c379a0000000000000000000000000000000000000000000000000000000008152600401610b2d906129ed565b60405180910390fd5b600360008373ffffffffffffffffffffffffffffffffffffffff1673ffffffffffffffffffffffffffffffffffffffff168152602001908152602001600020549050919050565b610b85611093565b73ffffffffffffffffffffffffffffffffffffffff16610ba3610c05565b73ffffffffffffffffffffffffffffffffffffffff1614610bf9576040517f08c379a0000000000000000000000000000000000000000000000000000000008152600401610bf090612aad565b60405180910390fd5b610c0360006116fd565b565b6000600760009054906101000a900473ffffffffffffffffffffffffffffffffffffffff16905090565b606060018054610c3e90612dc3565b80601f0160208091040260200160405190810160405280929190818152602001828054610c6a90612dc3565b8015610cb75780601f10610c8c57610100808354040283529160200191610cb7565b820191906000526020600020905b815481529060010190602001808311610c9a57829003601f168201915b5050505050905090565b60006001600983604051610cd591906127ee565b908152602001604051809103902054149050919050565b610cfe610cf7611093565b83836117c3565b5050565b610d13610d0d611093565b83611154565b610d52576040517f08c379a0000000000000000000000000000000000000000000000000000000008152600401610d4990612b2d565b60405180910390fd5b610d5e84848484611930565b50505050565b6060610d6f8261198c565b9050919050565b610d7e611093565b73ffffffffffffffffffffffffffffffffffffffff16610d9c610c05565b73ffffffffffffffffffffffffffffffffffffffff1614610df2576040517f08c379a0000000000000000000000000000000000000000000000000000000008152600401610de990612aad565b60405180910390fd5b6000610dfe6008611019565b9050610e0a6008611499565b610e148382611ade565b610e1e8183611689565b505050565b6000600560008473ffffffffffffffffffffffffffffffffffffffff1673ffffffffffffffffffffffffffffffffffffffff16815260200190815260200160002060008373ffffffffffffffffffffffffffffffffffffffff1673ffffffffffffffffffffffffffffffffffffffff16815260200190815260200160002060009054906101000a900460ff16905092915050565b610ebf611093565b73ffffffffffffffffffffffffffffffffffffffff16610edd610c05565b73ffffffffffffffffffffffffffffffffffffffff1614610f33576040517f08c379a0000000000000000000000000000000000000000000000000000000008152600401610f2a90612aad565b60405180910390fd5b600073ffffffffffffffffffffffffffffffffffffffff168173ffffffffffffffffffffffffffffffffffffffff161415610fa3576040517f08c379a0000000000000000000000000000000000000000000000000000000008152600401610f9a906128ed565b60405180910390fd5b610fac816116fd565b50565b60007f01ffc9a7000000000000000000000000000000000000000000000000000000007bffffffffffffffffffffffffffffffffffffffffffffffffffffffff1916827bffffffffffffffffffffffffffffffffffffffffffffffffffffffff1916149050919050565b600081600001549050919050565b60008073ffffffffffffffffffffffffffffffffffffffff166002600084815260200190815260200160002060009054906101000a900473ffffffffffffffffffffffffffffffffffffffff1673ffffffffffffffffffffffffffffffffffffffff1614159050919050565b600033905090565b816004600083815260200190815260200160002060006101000a81548173ffffffffffffffffffffffffffffffffffffffff021916908373ffffffffffffffffffffffffffffffffffffffff160217905550808273ffffffffffffffffffffffffffffffffffffffff1661110e83610a13565b73ffffffffffffffffffffffffffffffffffffffff167f8c5be1e5ebec7d5bd14f71427d1e84f3dd0314c0f7b2291e5b200ac8c7c3b92560405160405180910390a45050565b600061115f82611027565b61119e576040517f08c379a00000000000000000000000000000000000000000000000000000000081526004016111959061298d565b60405180910390fd5b60006111a983610a13565b90508073ffffffffffffffffffffffffffffffffffffffff168473ffffffffffffffffffffffffffffffffffffffff16148061121857508373ffffffffffffffffffffffffffffffffffffffff1661120084610666565b73ffffffffffffffffffffffffffffffffffffffff16145b8061122957506112288185610e23565b5b91505092915050565b8273ffffffffffffffffffffffffffffffffffffffff1661125282610a13565b73ffffffffffffffffffffffffffffffffffffffff16146112a8576040517f08c379a000000000000000000000000000000000000000000000000000000000815260040161129f9061290d565b60405180910390fd5b600073ffffffffffffffffffffffffffffffffffffffff168273ffffffffffffffffffffffffffffffffffffffff161415611318576040517f08c379a000000000000000000000000000000000000000000000000000000000815260040161130f9061294d565b60405180910390fd5b611323838383611afc565b61132e60008261109b565b6001600360008573ffffffffffffffffffffffffffffffffffffffff1673ffffffffffffffffffffffffffffffffffffffff168152602001908152602001600020600082825461137e9190612cd9565b925050819055506001600360008473ffffffffffffffffffffffffffffffffffffffff1673ffffffffffffffffffffffffffffffffffffffff16815260200190815260200160002060008282546113d59190612c52565b92505081905550816002600083815260200190815260200160002060006101000a81548173ffffffffffffffffffffffffffffffffffffffff021916908373ffffffffffffffffffffffffffffffffffffffff160217905550808273ffffffffffffffffffffffffffffffffffffffff168473ffffffffffffffffffffffffffffffffffffffff167fddf252ad1be2c89b69c2b068fc378daa952ba7f163c4a11628f55a4df523b3ef60405160405180910390a4611494838383611b01565b505050565b6001816000016000828254019250508190555050565b600073ffffffffffffffffffffffffffffffffffffffff168273ffffffffffffffffffffffffffffffffffffffff16141561151f576040517f08c379a000000000000000000000000000000000000000000000000000000000815260040161151690612a4d565b60405180910390fd5b61152881611027565b15611568576040517f08c379a000000000000000000000000000000000000000000000000000000000815260040161155f9061292d565b60405180910390fd5b61157460008383611afc565b6001600360008473ffffffffffffffffffffffffffffffffffffffff1673ffffffffffffffffffffffffffffffffffffffff16815260200190815260200160002060008282546115c49190612c52565b92505081905550816002600083815260200190815260200160002060006101000a81548173ffffffffffffffffffffffffffffffffffffffff021916908373ffffffffffffffffffffffffffffffffffffffff160217905550808273ffffffffffffffffffffffffffffffffffffffff16600073ffffffffffffffffffffffffffffffffffffffff167fddf252ad1be2c89b69c2b068fc378daa952ba7f163c4a11628f55a4df523b3ef60405160405180910390a461168560008383611b01565b5050565b61169282611027565b6116d1576040517f08c379a00000000000000000000000000000000000000000000000000000000081526004016116c890612a2d565b60405180910390fd5b806006600084815260200190815260200160002090805190602001906116f8929190611fac565b505050565b6000600760009054906101000a900473ffffffffffffffffffffffffffffffffffffffff16905081600760006101000a81548173ffffffffffffffffffffffffffffffffffffffff021916908373ffffffffffffffffffffffffffffffffffffffff1602179055508173ffffffffffffffffffffffffffffffffffffffff168173ffffffffffffffffffffffffffffffffffffffff167f8be0079c531659141344cd1fd0a4f28419497f9722a3daafe3b4186f6b6457e060405160405180910390a35050565b8173ffffffffffffffffffffffffffffffffffffffff168373ffffffffffffffffffffffffffffffffffffffff161415611832576040517f08c379a00000000000000000000000000000000000000000000000000000000081526004016118299061296d565b60405180910390fd5b80600560008573ffffffffffffffffffffffffffffffffffffffff1673ffffffffffffffffffffffffffffffffffffffff16815260200190815260200160002060008473ffffffffffffffffffffffffffffffffffffffff1673ffffffffffffffffffffffffffffffffffffffff16815260200190815260200160002060006101000a81548160ff0219169083151502179055508173ffffffffffffffffffffffffffffffffffffffff168373ffffffffffffffffffffffffffffffffffffffff167f17307eab39ab6107e8899845ad3d59bd9653f200f220920489ca2b5937696c31836040516119239190612890565b60405180910390a3505050565b61193b848484611232565b61194784848484611b06565b611986576040517f08c379a000000000000000000000000000000000000000000000000000000000815260040161197d906128cd565b60405180910390fd5b50505050565b606061199782611027565b6119d6576040517f08c379a00000000000000000000000000000000000000000000000000000000081526004016119cd90612a6d565b60405180910390fd5b60006006600084815260200190815260200160002080546119f690612dc3565b80601f0160208091040260200160405190810160405280929190818152602001828054611a2290612dc3565b8015611a6f5780601f10611a4457610100808354040283529160200191611a6f565b820191906000526020600020905b815481529060010190602001808311611a5257829003601f168201915b505050505090506000611a80611c9d565b9050600081511415611a96578192505050611ad9565b600082511115611acb578082604051602001611ab3929190612805565b60405160208183030381529060405292505050611ad9565b611ad484611cda565b925050505b919050565b611af8828260405180602001604052806000815250611d81565b5050565b505050565b505050565b6000611b278473ffffffffffffffffffffffffffffffffffffffff16611ddc565b15611c90578373ffffffffffffffffffffffffffffffffffffffff1663150b7a02611b50611093565b8786866040518563ffffffff1660e01b8152600401611b729493929190612844565b602060405180830381600087803b158015611b8c57600080fd5b505af1925050508015611bbd57506040513d601f19601f82011682018060405250810190611bba91906123ac565b60015b611c40573d8060008114611bed576040519150601f19603f3d011682016040523d82523d6000602084013e611bf2565b606091505b50600081511415611c38576040517f08c379a0000000000000000000000000000000000000000000000000000000008152600401611c2f906128cd565b60405180910390fd5b805181602001fd5b63150b7a0260e01b7bffffffffffffffffffffffffffffffffffffffffffffffffffffffff1916817bffffffffffffffffffffffffffffffffffffffffffffffffffffffff191614915050611c95565b600190505b949350505050565b60606040518060400160405280600781526020017f697066733a2f2f00000000000000000000000000000000000000000000000000815250905090565b6060611ce582611027565b611d24576040517f08c379a0000000000000000000000000000000000000000000000000000000008152600401611d1b90612acd565b60405180910390fd5b6000611d2e611c9d565b90506000815111611d4e5760405180602001604052806000815250611d79565b80611d5884611dff565b604051602001611d69929190612805565b6040516020818303038152906040525b915050919050565b611d8b83836114af565b611d986000848484611b06565b611dd7576040517f08c379a0000000000000000000000000000000000000000000000000000000008152600401611dce906128cd565b60405180910390fd5b505050565b6000808273ffffffffffffffffffffffffffffffffffffffff163b119050919050565b60606000821415611e47576040518060400160405280600181526020017f30000000000000000000000000000000000000000000000000000000000000008152509050611fa7565b600082905060005b60008214611e79578080611e6290612e26565b915050600a82611e729190612ca8565b9150611e4f565b60008167ffffffffffffffff811115611ebb577f4e487b7100000000000000000000000000000000000000000000000000000000600052604160045260246000fd5b6040519080825280601f01601f191660200182016040528015611eed5781602001600182028036833780820191505090505b5090505b60008514611fa057600182611f069190612cd9565b9150600a85611f159190612e6f565b6030611f219190612c52565b60f81b818381518110611f5d577f4e487b7100000000000000000000000000000000000000000000000000000000600052603260045260246000fd5b60200101907effffffffffffffffffffffffffffffffffffffffffffffffffffffffffffff1916908160001a905350600a85611f999190612ca8565b9450611ef1565b8093505050505b919050565b828054611fb890612dc3565b90600052602060002090601f016020900481019282611fda5760008555612021565b82601f10611ff357805160ff1916838001178555612021565b82800160010185558215612021579182015b82811115612020578251825591602001919060010190612005565b5b50905061202e9190612032565b5090565b5b8082111561204b576000816000905550600101612033565b5090565b600061206261205d84612bad565b612b88565b90508281526020810184848401111561207a57600080fd5b612085848285612d81565b509392505050565b60006120a061209b84612bde565b612b88565b9050828152602081018484840111156120b857600080fd5b6120c3848285612d81565b509392505050565b6000813590506120da81613504565b92915050565b6000813590506120ef8161351b565b92915050565b60008135905061210481613532565b92915050565b60008151905061211981613532565b92915050565b600082601f83011261213057600080fd5b813561214084826020860161204f565b91505092915050565b600082601f83011261215a57600080fd5b813561216a84826020860161208d565b91505092915050565b60008135905061218281613549565b92915050565b60006020828403121561219a57600080fd5b60006121a8848285016120cb565b91505092915050565b600080604083850312156121c457600080fd5b60006121d2858286016120cb565b92505060206121e3858286016120cb565b9150509250929050565b60008060006060848603121561220257600080fd5b6000612210868287016120cb565b9350506020612221868287016120cb565b925050604061223286828701612173565b9150509250925092565b6000806000806080858703121561225257600080fd5b6000612260878288016120cb565b9450506020612271878288016120cb565b935050604061228287828801612173565b925050606085013567ffffffffffffffff81111561229f57600080fd5b6122ab8782880161211f565b91505092959194509250565b600080604083850312156122ca57600080fd5b60006122d8858286016120cb565b92505060206122e9858286016120e0565b9150509250929050565b6000806040838503121561230657600080fd5b6000612314858286016120cb565b925050602083013567ffffffffffffffff81111561233157600080fd5b61233d85828601612149565b9150509250929050565b6000806040838503121561235a57600080fd5b6000612368858286016120cb565b925050602061237985828601612173565b9150509250929050565b60006020828403121561239557600080fd5b60006123a3848285016120f5565b91505092915050565b6000602082840312156123be57600080fd5b60006123cc8482850161210a565b91505092915050565b6000602082840312156123e757600080fd5b600082013567ffffffffffffffff81111561240157600080fd5b61240d84828501612149565b91505092915050565b60006020828403121561242857600080fd5b600061243684828501612173565b91505092915050565b61244881612d0d565b82525050565b61245781612d1f565b82525050565b600061246882612c0f565b6124728185612c25565b9350612482818560208601612d90565b61248b81612f5c565b840191505092915050565b60006124a182612c1a565b6124ab8185612c36565b93506124bb818560208601612d90565b6124c481612f5c565b840191505092915050565b60006124da82612c1a565b6124e48185612c47565b93506124f4818560208601612d90565b80840191505092915050565b600061250d603283612c36565b915061251882612f6d565b604082019050919050565b6000612530602683612c36565b915061253b82612fbc565b604082019050919050565b6000612553602583612c36565b915061255e8261300b565b604082019050919050565b6000612576601c83612c36565b91506125818261305a565b602082019050919050565b6000612599602483612c36565b91506125a482613083565b604082019050919050565b60006125bc601983612c36565b91506125c7826130d2565b602082019050919050565b60006125df602c83612c36565b91506125ea826130fb565b604082019050919050565b6000612602603883612c36565b915061260d8261314a565b604082019050919050565b6000612625602483612c36565b915061263082613199565b604082019050919050565b6000612648602a83612c36565b9150612653826131e8565b604082019050919050565b600061266b602983612c36565b915061267682613237565b604082019050919050565b600061268e602e83612c36565b915061269982613286565b604082019050919050565b60006126b1602083612c36565b91506126bc826132d5565b602082019050919050565b60006126d4603183612c36565b91506126df826132fe565b604082019050919050565b60006126f7602c83612c36565b91506127028261334d565b604082019050919050565b600061271a602083612c36565b91506127258261339c565b602082019050919050565b600061273d602f83612c36565b9150612748826133c5565b604082019050919050565b6000612760602183612c36565b915061276b82613414565b604082019050919050565b6000612783601683612c36565b915061278e82613463565b602082019050919050565b60006127a6603183612c36565b91506127b18261348c565b604082019050919050565b60006127c9601583612c36565b91506127d4826134db565b602082019050919050565b6127e881612d77565b82525050565b60006127fa82846124cf565b915081905092915050565b600061281182856124cf565b915061281d82846124cf565b91508190509392505050565b600060208201905061283e600083018461243f565b92915050565b6000608082019050612859600083018761243f565b612866602083018661243f565b61287360408301856127df565b8181036060830152612885818461245d565b905095945050505050565b60006020820190506128a5600083018461244e565b92915050565b600060208201905081810360008301526128c58184612496565b905092915050565b600060208201905081810360008301526128e681612500565b9050919050565b6000602082019050818103600083015261290681612523565b9050919050565b6000602082019050818103600083015261292681612546565b9050919050565b6000602082019050818103600083015261294681612569565b9050919050565b600060208201905081810360008301526129668161258c565b9050919050565b60006020820190508181036000830152612986816125af565b9050919050565b600060208201905081810360008301526129a6816125d2565b9050919050565b600060208201905081810360008301526129c6816125f5565b9050919050565b600060208201905081810360008301526129e681612618565b9050919050565b60006020820190508181036000830152612a068161263b565b9050919050565b60006020820190508181036000830152612a268161265e565b9050919050565b60006020820190508181036000830152612a4681612681565b9050919050565b60006020820190508181036000830152612a66816126a4565b9050919050565b60006020820190508181036000830152612a86816126c7565b9050919050565b60006020820190508181036000830152612aa6816126ea565b9050919050565b60006020820190508181036000830152612ac68161270d565b9050919050565b60006020820190508181036000830152612ae681612730565b9050919050565b60006020820190508181036000830152612b0681612753565b9050919050565b60006020820190508181036000830152612b2681612776565b9050919050565b60006020820190508181036000830152612b4681612799565b9050919050565b60006020820190508181036000830152612b66816127bc565b9050919050565b6000602082019050612b8260008301846127df565b92915050565b6000612b92612ba3565b9050612b9e8282612df5565b919050565b6000604051905090565b600067ffffffffffffffff821115612bc857612bc7612f2d565b5b612bd182612f5c565b9050602081019050919050565b600067ffffffffffffffff821115612bf957612bf8612f2d565b5b612c0282612f5c565b9050602081019050919050565b600081519050919050565b600081519050919050565b600082825260208201905092915050565b600082825260208201905092915050565b600081905092915050565b6000612c5d82612d77565b9150612c6883612d77565b9250827fffffffffffffffffffffffffffffffffffffffffffffffffffffffffffffffff03821115612c9d57612c9c612ea0565b5b828201905092915050565b6000612cb382612d77565b9150612cbe83612d77565b925082612cce57612ccd612ecf565b5b828204905092915050565b6000612ce482612d77565b9150612cef83612d77565b925082821015612d0257612d01612ea0565b5b828203905092915050565b6000612d1882612d57565b9050919050565b60008115159050919050565b60007fffffffff0000000000000000000000000000000000000000000000000000000082169050919050565b600073ffffffffffffffffffffffffffffffffffffffff82169050919050565b6000819050919050565b82818337600083830152505050565b60005b83811015612dae578082015181840152602081019050612d93565b83811115612dbd576000848401525b50505050565b60006002820490506001821680612ddb57607f821691505b60208210811415612def57612dee612efe565b5b50919050565b612dfe82612f5c565b810181811067ffffffffffffffff82111715612e1d57612e1c612f2d565b5b80604052505050565b6000612e3182612d77565b91507fffffffffffffffffffffffffffffffffffffffffffffffffffffffffffffffff821415612e6457612e63612ea0565b5b600182019050919050565b6000612e7a82612d77565b9150612e8583612d77565b925082612e9557612e94612ecf565b5b828206905092915050565b7f4e487b7100000000000000000000000000000000000000000000000000000000600052601160045260246000fd5b7f4e487b7100000000000000000000000000000000000000000000000000000000600052601260045260246000fd5b7f4e487b7100000000000000000000000000000000000000000000000000000000600052602260045260246000fd5b7f4e487b7100000000000000000000000000000000000000000000000000000000600052604160045260246000fd5b6000601f19601f8301169050919050565b7f4552433732313a207472616e7366657220746f206e6f6e20455243373231526560008201527f63656976657220696d706c656d656e7465720000000000000000000000000000602082015250565b7f4f776e61626c653a206e6577206f776e657220697320746865207a65726f206160008201527f6464726573730000000000000000000000000000000000000000000000000000602082015250565b7f4552433732313a207472616e736665722066726f6d20696e636f72726563742060008201527f6f776e6572000000000000000000000000000000000000000000000000000000602082015250565b7f4552433732313a20746f6b656e20616c7265616479206d696e74656400000000600082015250565b7f4552433732313a207472616e7366657220746f20746865207a65726f2061646460008201527f7265737300000000000000000000000000000000000000000000000000000000602082015250565b7f4552433732313a20617070726f766520746f2063616c6c657200000000000000600082015250565b7f4552433732313a206f70657261746f7220717565727920666f72206e6f6e657860008201527f697374656e7420746f6b656e0000000000000000000000000000000000000000602082015250565b7f4552433732313a20617070726f76652063616c6c6572206973206e6f74206f7760008201527f6e6572206e6f7220617070726f76656420666f7220616c6c0000000000000000602082015250565b7f5061796d656e74206d757374206265206174206c6561737420302e303031206560008201527f7468657200000000000000000000000000000000000000000000000000000000602082015250565b7f4552433732313a2062616c616e636520717565727920666f7220746865207a6560008201527f726f206164647265737300000000000000000000000000000000000000000000602082015250565b7f4552433732313a206f776e657220717565727920666f72206e6f6e657869737460008201527f656e7420746f6b656e0000000000000000000000000000000000000000000000602082015250565b7f45524337323155524953746f726167653a2055524920736574206f66206e6f6e60008201527f6578697374656e7420746f6b656e000000000000000000000000000000000000602082015250565b7f4552433732313a206d696e7420746f20746865207a65726f2061646472657373600082015250565b7f45524337323155524953746f726167653a2055524920717565727920666f722060008201527f6e6f6e6578697374656e7420746f6b656e000000000000000000000000000000602082015250565b7f4552433732313a20617070726f76656420717565727920666f72206e6f6e657860008201527f697374656e7420746f6b656e0000000000000000000000000000000000000000602082015250565b7f4f776e61626c653a2063616c6c6572206973206e6f7420746865206f776e6572600082015250565b7f4552433732314d657461646174613a2055524920717565727920666f72206e6f60008201527f6e6578697374656e7420746f6b656e0000000000000000000000000000000000602082015250565b7f4552433732313a20617070726f76616c20746f2063757272656e74206f776e6560008201527f7200000000000000000000000000000000000000000000000000000000000000602082015250565b7f546f6f206d616e79206974656d73206372656174656400000000000000000000600082015250565b7f4552433732313a207472616e736665722063616c6c6572206973206e6f74206f60008201527f776e6572206e6f7220617070726f766564000000000000000000000000000000602082015250565b7f436f6e74656e7420616c7265616479206f776e65640000000000000000000000600082015250565b61350d81612d0d565b811461351857600080fd5b50565b61352481612d1f565b811461352f57600080fd5b50565b61353b81612d2b565b811461354657600080fd5b50565b61355281612d77565b811461355d57600080fd5b5056fea26469706673582212209fcec5dac6552546e44558ea2d0af520976335027e21fa75ad8b192de4910ef164736f6c63430008040033",
    "linkReferences": {},
    "deployedLinkReferences": {}
}